:100000000C9462000C948A000C948A000C948A0070
:100010000C948A000C948A000C948A000C948A0038
:100020000C948A000C948A000C948A000C948A0028
:100030000C948A000C948A000C948A000C948A0018
:100040000C9413040C948A000C9483040C945D04A7
:100050000C948A000C948A000C948A000C948A00F8
:100060000C948A000C948A000000000024002700F1
:100070002A0000000000250028002B0000000000DE
:1000800023002600290004040404040404040202DA
:100090000202020203030303030301020408102007
:1000A0004080010204081020010204081020000012
:1000B0000008000201000003040700000000000027
:1000C0000000CF0711241FBECFEFD8E0DEBFCDBFA9
:1000D00016E0A0E0B1E0E0EEF1E102C005900D9283
:1000E000A63EB107D9F727E0A6EEB6E001C01D9203
:1000F000AC38B207E1F710E0C2E6D0E004C02197C7
:10010000FE010E94E308C136D107C9F70E94B50479
:100110000C94EE080C9400002FB7F8948091EB0635
:100120009091EC06A091ED06B091EE062FBF809362
:10013000F7069093F806A093F906B093FA06E091BB
:10014000EF06F091F0060484F585E02D8FEE96E041
:10015000099597FF26C02FB7F8948091EB069091F0
:10016000EC06A091ED06B091EE062FBF4091F70688
:100170005091F8066091F9067091FA06841B950B70
:10018000A60BB70B4091F3065091F4066091F5066B
:100190007091F60684179507A607B70780F28FEFD0
:1001A0009FEF0895833081F028F4813099F08230F8
:1001B000A1F008958730A9F08830B9F08430D1F4E7
:1001C000809180008F7D03C0809180008F77809325
:1001D0008000089584B58F7702C084B58F7D84BD7B
:1001E00008958091B0008F7703C08091B0008F7D1B
:1001F0008093B0000895CF93DF93282F30E0F9016A
:10020000E255FF4F8491F901E656FF4FD491F90171
:10021000EA57FF4FC491CC2391F081110E94D20084
:10022000EC2FF0E0EE0FFF1FE458FF4FA591B491C3
:10023000EC91ED2381E090E021F480E002C080E0C9
:1002400090E0DF91CF9108951F93CF93DF93282FF4
:1002500030E0F901E255FF4F8491F901E656FF4F76
:10026000D491F901EA57FF4FC491CC23C9F0162F5E
:1002700081110E94D200EC2FF0E0EE0FFF1FEE582C
:10028000FF4FA591B4918FB7F894111105C09C91BF
:10029000ED2FE095E92302C0EC91ED2BEC938FBF9D
:1002A000DF91CF911F910895CF93DF9390E0FC01F0
:1002B000E656FF4F2491FC01EA57FF4F84918823B3
:1002C00061F190E0880F991FFC01E859FF4FC5913B
:1002D000D491FC01EE58FF4FA591B491611109C072
:1002E0009FB7F8948881209582238883EC912E23F0
:1002F0000BC0623061F49FB7F8943881822F8095EB
:1003000083238883EC912E2B2C939FBF06C08FB73D
:10031000F894E8812E2B28838FBFDF91CF91089529
:100320003FB7F8948091E7069091E806A091E9061E
:10033000B091EA0626B5A89B05C02F3F19F001969B
:10034000A11DB11D3FBFBA2FA92F982F8827820F5B
:10035000911DA11DB11DBC01CD0142E0660F771FAB
:10036000881F991F4A95D1F708958F929F92AF9257
:10037000BF92CF92DF92EF92FF926B017C010E94BD
:1003800090014B015C01C114D104E104F104F1F0CE
:100390000E949001DC01CB0188199909AA09BB09C7
:1003A000883E9340A105B10570F321E0C21AD1083F
:1003B000E108F10888EE880E83E0981EA11CB11CAC
:1003C000C114D104E104F10419F7DDCFFF90EF90DF
:1003D000DF90CF90BF90AF909F908F900895CF9275
:1003E000DF92EF92FF920F931F93CF93DF936C01F5
:1003F0007A018B01C0E0D0E0CE15DF0589F0D8018D
:100400006D918D01D601ED91FC910190F081E02D6F
:10041000C6010995892B11F47E0102C02196ECCF0B
:10042000C701DF91CF911F910F91FF90EF90DF9067
:10043000CF900895089580E090E00895FC01538DD9
:10044000448D252F30E0842F90E0821B930B5417AE
:1004500010F0CF96089501970895FC01918D828D3B
:10046000981761F0828DDF01A80FB11D5D968C9108
:10047000928D9F5F9F73928F90E008958FEF9FEF13
:100480000895FC01918D828D981731F0828DE80FCF
:10049000F11D858D90E008958FEF9FEF0895FC0189
:1004A000918D228D892F90E0805C9F4F821B910956
:1004B0008F73992708958FEE96E00E944F0221E0F6
:1004C000892B09F420E0822F0895FC01848DDF013F
:1004D000A80FB11DA35ABF4F2C91848D90E00196B7
:1004E0008F739927848FA689B7892C93A089B189A6
:1004F0008C9180648C93938D848D981306C00288B0
:10050000F389E02D80818F7D80830895EF92FF92A3
:100510000F931F93CF93DF93EC0181E0888F9B8D26
:100520008C8D981305C0E889F989808185FD24C0E8
:10053000F62E0B8D10E00F5F1F4F0F731127E02E6B
:100540008C8DE8120CC00FB607FCFACFE889F98948
:10055000808185FFF5CFCE010E946502F1CF8B8DA2
:10056000FE01E80FF11DE35AFF4FF0820B8FEA897D
:10057000FB898081806207C0EE89FF896083E889FA
:10058000F98980818064808381E090E0DF91CF9160
:100590001F910F91FF90EF900895CF93DF93EC019F
:1005A000888D8823C9F0EA89FB89808185FD05C093
:1005B000A889B9898C9186FD0FC00FB607FCF5CFCD
:1005C000808185FFF2CFA889B9898C9185FFEDCF15
:1005D000CE010E946502E7CFDF91CF91089580E0C0
:1005E00090E0892B29F00E945B0281110C9400009D
:1005F0000895FF920F931F93CF93DF9300D000D005
:10060000CDB7DEB70E948C00FC0197FD11C08D3282
:10061000910591F0C0970A9778F0E091EF06F0917C
:10062000F0060284F385E02D8FEE96E00995EACF7F
:1006300080E090E0DC012BC020E030E0A901F12C4B
:10064000E130F10589F5E091EF06F091F0060284C2
:10065000F385E02D8FEE96E029833A834B835C830C
:1006600009950E948C00FC01C09729813A814B8139
:100670005C810A9728F3E130F10511F3FF2099F12D
:1006800088279927DC01821B930BA40BB50B0097DD
:1006900009F4B8CF0F900F900F900F90DF91CF918A
:1006A0001F910F91FF900895ED32F105C9F0CF0130
:1006B000C0970A9740F6AAE0B0E00E9477088F0141
:1006C000FF0F220B330BDC01CB01800F911FA21F08
:1006D000B31F9C01AD012053310941095109B3CF2A
:1006E000FF24F394B0CFDA01C901D1CF009769F0AC
:1006F000FC0101900020E9F73197AF01481B590B2D
:10070000BC018FEE96E00C94EF0180E090E008953C
:10071000CF93DF930E947603EC0186E191E00E9483
:1007200076038C0F9D1FDF91CF9108958F929F923A
:10073000AF92BF92CF92DF92EF92FF920F931F93EF
:10074000CF93DF93CDB7DEB7A1970FB6F894DEBF96
:100750000FBECDBF6C01990FEE08FF08F7FE31C048
:10076000E091EF06F091F0060190F081E02D6DE24E
:100770008FEE96E009958C0122273327A9012C19C9
:100780003D094E095F0919A2CE0181967C019AE0CC
:10079000892E912CA12CB12CCA01B901A50194017B
:1007A0000E948A08605DF70162937F01211531057F
:1007B0004105510589F7CF010E947603800F911FF3
:1007C0001DC0A701960119A28E010F5D1F4F8AE07F
:1007D000C82ED12CE12CF12CCA01B901A701960138
:1007E0000E948A08605DF80162938F01211531052E
:1007F0004105510589F7CF010E947603A1960FB6F6
:10080000F894DEBF0FBECDBFDF91CF911F910F9146
:10081000FF90EF90DF90CF90BF90AF909F908F9020
:1008200008950E94E9081F920F920FB60F921124AB
:100830002F933F938F939F93AF93BF938091EB063A
:100840009091EC06A091ED06B091EE063091E6068F
:1008500023E0230F2D3720F40196A11DB11D05C003
:1008600026E8230F0296A11DB11D2093E606809372
:10087000EB069093EC06A093ED06B093EE06809104
:10088000E7069091E806A091E906B091EA06019684
:10089000A11DB11D8093E7069093E806A093E90699
:1008A000B093EA06BF91AF919F918F913F912F91A5
:1008B0000F900FBE0F901F9018951F920F920FB6BA
:1008C0000F9211242F933F934F935F936F937F93D6
:1008D0008F939F93AF93BF93EF93FF938FEE96E029
:1008E0000E946502FF91EF91BF91AF919F918F910F
:1008F0007F916F915F914F913F912F910F900FBE1C
:100900000F901F9018951F920F920FB60F921124FF
:100910002F938F939F93EF93FF93E091FF06F091B6
:1009200000078081E0910507F091060782FD12C063
:100930009081809108078F5F8F732091090782173C
:1009400051F0E0910807F0E0E151F94F958F809365
:10095000080701C08081FF91EF919F918F912F91A6
:100960000F900FBE0F901F901895CF93DF93CDB7C8
:10097000DEB764970FB6F894DEBF0FBECDBF789494
:1009800084B5826084BD84B5816084BD85B5826094
:1009900085BD85B5816085BD80916E008160809345
:1009A0006E001092810080918100826080938100AE
:1009B00080918100816080938100809180008160BE
:1009C000809380008091B10084608093B100809119
:1009D000B00081608093B00080917A008460809341
:1009E0007A0080917A00826080937A0080917A0008
:1009F000816080937A0080917A00806880937A0089
:100A00001092C10061E088E00E94540160E082E041
:100A10000E94540161E089E00E94540160E083E09B
:100A20000E945401E091FF06F091000782E080836C
:100A3000E091FB06F091FC061082E091FD06F0913A
:100A4000FE068FEC808310920707E0910307F09178
:100A5000040786E08083E0910107F091020780811E
:100A600080618083E0910107F091020780818860B6
:100A70008083E0910107F091020780818068808384
:100A8000E0910107F091020780818F7D808380E4EF
:100A900080937C0080917A00806480937A008091BA
:100AA0007A0086FDFCCF609178008091790070E03B
:100AB000782B072E000C880B990B611571058105A9
:100AC000910511F00E944F082DB73EB73C872B8748
:100AD00088EE93E09C838B8370EDE72E77E0F72E12
:100AE000EBE02E2E312CF8EECF2EF3E0DF2E8FB779
:100AF000F8944090EB065090EC066090ED067090F4
:100B0000EE068FBF8FEE96E00E944F021816190670
:100B100014F082015EC08FEE96E00E94CD0200E0EC
:100B200010E057C08FEE96E00E94CD0289E191E07F
:100B30000E94880386E791E00E94880381ED91E09E
:100B40000E94880383E092E00E94880385E592E09A
:100B50000E9488038DE992E00E9488038FEA93E067
:100B60000E9488030E94F9025C018FEE96E00E94C9
:100B7000CD0291E0A916B10489F583EB92E00E94C1
:100B8000880385EF92E00E94880380E493E00E944E
:100B9000880383E793E00E94880387EA93E00E943A
:100BA00088038EEA93E00E9488030E94F9025C01A8
:100BB0000097D9F31C01AFEF2A1A3A0A8CEC93E0A4
:100BC0000E948803C5010E94960380E393E00E947F
:100BD00088030115110509F4A5CF75C0B2E0AB1665
:100BE000B10449F581EF93E00E9488038EE594E01B
:100BF0000E9488038EE894E00E94880384EF94E0CA
:100C00000E94880383E095E00E9488030E94F90215
:100C10000097E1F39C838B8381E595E00E94760346
:100C20008B819C81B6010E94BB08CB010E94960378
:100C30008BE795E0CCCFE3E0AE16B104B9F489E8D8
:100C400095E00E9488038DEC95E00E9488038EEF6A
:100C500095E00E9488030E94F9020097E1F37C016D
:100C600083E296E00E947603C701DCCFF4E0AF1682
:100C7000B10409F0AECF81E596E00E94880388E8D0
:100C800096E00E9488038FE996E00E94880386EA36
:100C900096E00E9488030E94F9020097E1F3019711
:100CA00009F097CF8FEA96E00E94880368EB7BE01B
:100CB00080E090E00E94B5018FEE96E00E94CD02A8
:100CC00000E21EE486CF003117420CF410CFC101C0
:100CD000880F991FADB7BEB7A81BB90B0FB6F89414
:100CE000BEBF0FBEADBFEDB7FEB73196FA87E9873D
:100CF0006F0100E010E002151305A4F40E944A08F9
:100D000022E030E040E050E00E945808DC01CB01D6
:100D10000196A11DB11DF601819391936F010F5FA3
:100D20001F4FE9CF2B813C81225331093E832D8314
:100D30005AEF452E512C612C712C01E010E0C701B7
:100D4000FF0CAA0BBB0B8F87988BA98BBA8B021554
:100D500013050CF01AC12DB73EB73E872D876F855E
:100D6000788989899A890E94B5019801220F331FD9
:100D70003A8329838DB79EB7821B930B0FB6F894E5
:100D80009EBF0FBE8DBFADB7BEB711967D01B887B0
:100D9000AF83E985FA8580E090E08017910734F40D
:100DA000219131912D933D930196F7CFEB81FC81F9
:100DB000E93CF1051CF08D819E8102C088EC90E039
:100DC0004C01990FAA08BB08C12CD12CC016D10622
:100DD000C9F1D7012D913D917D0160E088E02B8B19
:100DE0003C8B0E94240160E089E00E9424012B8951
:100DF0003C892130310579F4C501B4010E94B50167
:100E000061E088E00E942401C501B4010E94B5019F
:100E100060E088E011C02230310581F4C501B401E1
:100E20000E94B50161E089E00E942401C501B4017E
:100E30000E94B50160E089E00E942401BFEFCB1A57
:100E4000DB0AC4CFEDB7FEB729813A81E21BF30B71
:100E50000FB6F894FEBF0FBEEDBF2DB73EB72F5FA4
:100E60003F4F3A8329835901C12CD12CC016D1069A
:100E700064F5E12CF12CE114F104C9F482E00E9444
:100E8000FB00019741F482E00E94FB000197D9F337
:100E9000EE24E394F12C83E00E94FB00019759F7C4
:100EA00083E00E94FB0022E0E22EF12CF7CF6AEFF4
:100EB00070E080E090E00E94B501D501ED92FD92D6
:100EC0005D01BFEFCB1ADB0AD1CF80E090E021E0DB
:100ED00030E0801791079CF4EF81F8856191719162
:100EE000F887EF83A981BA814D915D91BA83A98377
:100EF0006417750711F020E030E00196EACF85E035
:100F0000E82EF12C21303105A9F461E088E00E943F
:100F10002401C301B2010E94B50160E088E00E9493
:100F20002401C301B2010E94B501B1E0EB1AF1083E
:100F300061F716C061E089E00E942401C301B2019B
:100F40000E94B50160E089E00E942401C301B20162
:100F50000E94B501E1E0EE1AF10861F7F701099589
:100F60000F5F1F4F2D853E850FB6F8943EBF0FBE15
:100F70002DBF33E2431A5108610871082D813E816B
:100F8000225331093E832D83E2CE8B859C850FB69B
:100F9000F8949EBF0FBE8DBF0E94EF0295CDEFEE7D
:100FA000F6E01382128288EE93E0A0E0B0E0848342
:100FB0009583A683B78388E091E09183808385EC55
:100FC00090E09587848784EC90E09787868780EC13
:100FD00090E0918B808B81EC90E0938B828B82EC04
:100FE00090E0958B848B86EC90E0978B868B118EAE
:100FF000128E138E148E08958F929F92AF92BF928D
:10100000CF92DF92EF92FF92CF93DF93EC01688152
:1010100079818A819B81611571058105910521F492
:1010200064E279ED8BE597E02DE133EF41E050E0AC
:101030000E94580849015A019B01AC01A7EAB1E49A
:101040000E9477086B017C01ACEEB4EFA50194011E
:101050000E948508DC01CB018C0D9D1DAE1DBF1DBE
:10106000B7FF03C00197A109B04888839983AA8379
:10107000BB83BC01CD019F77DF91CF91FF90EF90B3
:10108000DF90CF90BF90AF909F908F9008950E9477
:10109000FC07089580E091E00E94FC0708956093AA
:1010A0000001709301018093020190930301089560
:1010B000052E97FB1EF400940E946F0857FD07D081
:1010C0000E948A0807FC03D04EF40C946F085095D8
:1010D0004095309521953F4F4F4F5F4F0895909524
:1010E0008095709561957F4F8F4F9F4F08950E9417
:1010F000AC08A59F900DB49F900DA49F800D911DED
:1011000011240895B7FF0C9477080E947708821B7A
:10111000930B0895A1E21A2EAA1BBB1BFD010DC063
:10112000AA1FBB1FEE1FFF1FA217B307E407F50797
:1011300020F0A21BB30BE40BF50B661F771F881F73
:10114000991F1A9469F760957095809590959B0109
:10115000AC01BD01CF010895A29FB001B39FC001B2
:10116000A39F700D811D1124911DB29F700D811DD3
:101170001124911D089597FB072E16F4009407D0B3
:1011800077FD09D00E94CF0807FC05D03EF490956A
:1011900081959F4F0895709561957F4F0895AA1B83
:1011A000BB1B51E107C0AA1FBB1FA617B70710F052
:1011B000A61BB70B881F991F5A95A9F78095909584
:1011C000BC01CD010895EE0FFF1F0590F491E02DB5
:1011D000099481E090E0F8940C94EE08F894FFCF25
:1011E00001000000000000008602EF011E02CD0297
:1011F0004F022D0241020D0A00D094D0BED0B1D1D1
:1012000080D0BE20D0BFD0BED0B6D0B0D0BBD0BE74
:10121000D0B2D0B0D182D18C20D0B220D0B8D0BD45
:10122000D182D0B5D180D184D0B5D0B9D18120D1EF
:1012300080D0B5D0B4D0B0D0BAD182D0B8D180D01F
:10124000BED0B2D0B0D0BDD0B8D18F20D0B8D0B33E
:10125000D180D18B2100D092D0B5D0B5D0B4D0B848
:10126000D182D0B520D0BDD0BED0BCD0B5D18020E9
:10127000D0BDD0B0D181D182D180D0BED0B9D0BACA
:10128000D0B82C20D0BAD0BED182D0BED180D183EC
:10129000D18E20D185D0BED182D0B8D182D0B52018
:1012A000D0B8D0B7D0BCD0B5D0BDD0B8D182D18C59
:1012B0000031202D20D098D0B7D0BCD0B5D0BDD033
:1012C000B5D0BDD0B8D0B520D0BAD0BED0BB2DD00F
:1012D000B2D0B020D180D0B0D183D0BDD0B4D0BEF8
:1012E000D0B20032202D20D098D0B7D0BCD0B5D00D
:1012F000BDD0B5D0BDD0B8D0B520D181D0BAD0BE88
:10130000D180D0BED181D182D0B820D0BFD180D001
:10131000BED0BCD0B8D0B3D0B8D0B2D0B0D0BDD091
:10132000B8D18F20D0BBD0B0D0BCD0BFD0BED18779
:10133000D0B5D0BA0033202D20D098D0B7D0BCD0B3
:10134000B5D0BDD0B5D0BDD0B8D0B520D0BFD1803C
:10135000D0BED0BCD0B5D0B6D183D182D0BAD0B0B7
:1013600020D0BCD0B5D0B6D0B4D18320D180D0B0FD
:10137000D183D0BDD0B4D0B0D0BCD0B800D096D03E
:10138000B4D18320D0BAD0BED0BCD0B0D0BDD0B400
:10139000D18B00D092D18B20D0B2D18BD0B1D18063
:1013A000D0B0D0BBD0B820D098D097D09CD095D01A
:1013B0009DD095D09DD098D09520D09AD09ED09B8E
:1013C0002DD092D09020D0A0D090D0A3D09DD094FA
:1013D000D09ED09200D090D0B2D182D0BED0BCD01E
:1013E000B0D182D0B8D187D0B5D181D0BAD0B82011
:1013F000D181D182D0BED0B8D18220D0BDD0B0D1E1
:1014000081D182D180D0BED0B9D0BAD0B020313015
:1014100020D180D0B0D183D0BDD0B4D0BED0B20066
:10142000D0A7D182D0BED0B1D18B20D0B5D0B5203D
:10143000D0BDD0B520D0BCD0B5D0BDD18FD182D158
:101440008C2C20D0BDD0B0D0BFD0B8D188D0B8209F
:10145000313000D09FD180D0BED181D182D0BE208A
:10146000D0BDD0B0D0BFD0B8D188D0B820D187D02F
:10147000B8D181D0BBD0BE20D180D0B0D183D0BD77
:10148000D0B4D0BED0B200D096D0B4D183002D2D30
:101490002D2D2D2D2D2D2D2D2D2D2D2D2D2D2D2D7C
:1014A0002D2D2D2D2D2D2D2D2D2D2D00D182D0B575
:1014B000D0BFD0B5D180D18C20D0B220D0B8D0B39D
:1014C000D180D0B520D0B1D183D0B4D0B5D18220D5
:1014D00000D092D18B20D0B2D18BD0B1D180D0B0FE
:1014E000D0BBD0B820D0BAD0BED0BCD0B0D0BDD048
:1014F000B4D18320D0B8D0B7D0BCD0B5D0BDD0B592
:10150000D0BDD0B8D18F20D181D0BAD0BED180D0BB
:10151000BED181D182D0B820D0BFD180D0BED0BCC6
:10152000D0B8D0B3D0B8D0B2D0B0D0BDD0B8D18FB1
:1015300020D0B4D0B8D0BED0B4D0BED0B200D0A1EC
:10154000D0B5D0B9D187D0B0D18120D180D0B5D09D
:10155000B6D0B8D0BC20D18120D183D181D0BAD02F
:10156000BED180D0B5D0BDD0B8D0B5D0BC00D0A150
:10157000D0BAD0BED180D0BED181D182D0B820D057
:10158000BDD0B0D187D0B8D0BDD0B0D0B5D182D188
:1015900081D18F20D0BED1822031D1812E20D0B8F0
:1015A00020D0BCD0B8D0BDD0B8D0BCD183D0BC2066
:1015B000D0BAD0BED182D0BED180D18BD0B920D00C
:1015C000BCD0BED0B6D0B5D18220D0B1D18BD18223
:1015D000D18C2C00D18DD182D0BE20302E3235D18D
:1015E000812E00D09DD0B0D0BFD0B8D188D0B8D196
:1015F00082D0B520D181D0B2D0BED18E20D181D0C1
:10160000BAD0BED180D0BED181D182D18C20D1813F
:1016100020D0BAD0BED182D0BED180D0BED0B92029
:10162000D0BDD0B0D187D0B8D0BDD0B0D182D18C10
:1016300000D0A2D0B5D0BFD0B5D180D18C20D1817F
:10164000D0BAD0BED180D0BED181D182D18C20D0B1
:10165000B1D183D0B4D0B5D182200020D181D0B512
:10166000D0BAD183D0BDD0B400D09DD0B0D181D17B
:1016700082D180D0BED0B9D0BAD0B020D0BFD18076
:10168000D0BED0BCD0B5D0B6D183D182D0BAD0B084
:1016900020D0BCD0B5D0B6D0B4D18320D180D0B0CA
:1016A000D183D0BDD0B4D0B0D0BCD0B800D09FD002
:1016B000BE20D183D0BCD0BED0BBD187D0B0D0BDEE
:1016C000D0B8D18E20D0BFD180D0BED0BCD0B5D0C4
:1016D000B6D183D182D0BED0BA2032D18100D09D84
:1016E000D0B0D0BFD0B8D188D0B820D181D0B2D0BE
:1016F000BED0B920D0B2D0B0D180D0B8D0B0D0BD9B
:10170000D18200D0A2D0B5D0BFD0B5D180D18C20AD
:10171000D0BFD180D0BED0BCD0B5D0B6D183D1821D
:10172000D0BED0BA20D180D0B0D0B2D0B5D0BD20FC
:1017300000D092D18B20D0B2D18BD0B1D180D0B09B
:10174000D0BBD0B820D0B2D18BD185D0BED0B42000
:10175000D0B8D0B720D0BDD0B0D181D182D180D087
:10176000BED0B9D0BAD0B800D092D18B20D183D01E
:10177000B2D0B5D180D0B5D0BDD0BDD18B3F003176
:101780003DD0B4D0B000323DD0BDD0B5D18200D074
:10179000BDD0B0D187D0B8D0BDD0B0D0B5D0BC20EE
:1017A000D0B8D0B3D180D18320D187D0B5D180D06B
:1017B000B5D0B7203320D181D0B5D0BAD183D0BD38
:0617C000D0B4D18B000043
:00000001FF
