:100000000C9462000C948A000C948A000C948A0070
:100010000C948A000C948A000C948A000C948A0038
:100020000C948A000C948A000C948A000C948A0028
:100030000C948A000C948A000C948A000C948A0018
:100040000C94B5020C948A000C9425030C94FF02C6
:100050000C948A000C948A000C948A000C948A00F8
:100060000C948A000C948A000000000024002700F1
:100070002A0000000000250028002B0000000000DE
:1000800023002600290004040404040404040202DA
:100090000202020203030303030301020408102007
:1000A0004080010204081020010204081020000012
:1000B0000008000201000003040700000000000027
:1000C0000000470511241FBECFEFD8E0DEBFCDBF33
:1000D00011E0A0E0B1E0E0E8FCE002C005900D9284
:1000E000A631B107D9F721E0A6E1B1E001C01D9228
:1000F000AC3BB207E1F710E0C2E6D0E004C02197C4
:10010000FE010E943306C136D107C9F70E9457038A
:100110000C943E060C940000833081F028F481306A
:1001200099F08230A1F008958730A9F08830B9F0B5
:100130008430D1F4809180008F7D03C08091800055
:100140008F7780938000089584B58F7702C084B53F
:100150008F7D84BD08958091B0008F7703C080911A
:10016000B0008F7D8093B0000895CF93DF93282F48
:1001700030E0F901E255FF4F8491F901E656FF4F57
:10018000D491F901EA57FF4FC491CC2391F081112A
:100190000E948C00EC2FF0E0EE0FFF1FE458FF4FA1
:1001A000A591B491EC91ED2381E090E021F480E001
:1001B00002C080E090E0DF91CF9108951F93CF932C
:1001C000DF93282F30E0F901E255FF4F8491F901C8
:1001D000E656FF4FD491F901EA57FF4FC491CC2363
:1001E000C9F0162F81110E948C00EC2FF0E0EE0F69
:1001F000FF1FEE58FF4FA591B4918FB7F8941111DE
:1002000005C09C91ED2FE095E92302C0EC91ED2B08
:10021000EC938FBFDF91CF911F910895CF93DF9320
:1002200090E0FC01E656FF4F2491FC01EA57FF4F96
:100230008491882361F190E0880F991FFC01E859AF
:10024000FF4FC591D491FC01EE58FF4FA591B49199
:10025000611109C09FB7F894888120958223888313
:10026000EC912E230BC0623061F49FB7F894388173
:10027000822F809583238883EC912E2B2C939FBF14
:1002800006C08FB7F894E8812E2B28838FBFDF91AB
:10029000CF9108953FB7F8948091B8019091B9013A
:1002A000A091BA01B091BB0126B5A89B05C02F3F14
:1002B00019F00196A11DB11D3FBFBA2FA92F982F8C
:1002C0008827820F911DA11DB11DBC01CD0142E007
:1002D000660F771F881F991F4A95D1F708958F924F
:1002E0009F92AF92BF92CF92DF92EF92FF926B01FB
:1002F0007C010E944A014B015C01C114D104E1045C
:10030000F104F1F00E944A01DC01CB01881999093E
:10031000AA09BB09883E9340A105B10570F321E00D
:10032000C21AD108E108F10888EE880E83E0981E11
:10033000A11CB11CC114D104E104F10419F7DDCFF3
:10034000FF90EF90DF90CF90BF90AF909F908F90F5
:100350000895CF92DF92EF92FF920F931F93CF9366
:10036000DF936C017A018B01C0E0D0E0CE15DF0590
:1003700089F0D8016D918D01D601ED91FC9101902C
:10038000F081E02DC6010995892B11F47E0102C090
:100390002196ECCFC701DF91CF911F910F91FF9074
:1003A000EF90DF90CF900895089580E090E0089559
:1003B000FC01538D448D252F30E0842F90E0821B6B
:1003C000930B541710F0CF96089501970895FC01F0
:1003D000918D828D981761F0828DDF01A80FB11D7C
:1003E0005D968C91928D9F5F9F73928F90E00895A0
:1003F0008FEF9FEF0895FC01918D828D981731F05A
:10040000828DE80FF11D858D90E008958FEF9FEFAD
:100410000895FC01918D228D892F90E0805C9F4F83
:10042000821B91098F739927089586E191E00E94BC
:10043000090221E0892B09F420E0822F0895FC01B4
:10044000848DDF01A80FB11DA35ABF4F2C91848D5D
:1004500090E001968F739927848FA689B7892C9392
:10046000A089B1898C9180648C93938D848D98132D
:1004700006C00288F389E02D80818F7D80830895F6
:10048000EF92FF920F931F93CF93DF93EC0181E0E4
:10049000888F9B8D8C8D981305C0E889F9898081A0
:1004A00085FD24C0F62E0B8D10E00F5F1F4F0F73DC
:1004B0001127E02E8C8DE8120CC00FB607FCFACF86
:1004C000E889F989808185FFF5CFCE010E941F025E
:1004D000F1CF8B8DFE01E80FF11DE35AFF4FF08243
:1004E0000B8FEA89FB898081806207C0EE89FF89D2
:1004F0006083E889F98980818064808381E090E06D
:10050000DF91CF911F910F91FF90EF900895CF93BE
:10051000DF93EC01888D8823C9F0EA89FB8980810B
:1005200085FD05C0A889B9898C9186FD0FC00FB6DD
:1005300007FCF5CF808185FFF2CFA889B9898C911E
:1005400085FFEDCFCE010E941F02E7CFDF91CF9153
:10055000089580E090E0892B29F00E941502811116
:100560000C94000008950E9439061F920F920FB656
:100570000F9211242F933F938F939F93AF93BF9329
:100580008091B4019091B501A091B601B091B701ED
:100590003091B30123E0230F2D3720F40196A11DE4
:1005A000B11D05C026E8230F0296A11DB11D2093A1
:1005B000B3018093B4019093B501A093B601B093B9
:1005C000B7018091B8019091B901A091BA01B091A1
:1005D000BB010196A11DB11D8093B8019093B90193
:1005E000A093BA01B093BB01BF91AF919F918F913E
:1005F0003F912F910F900FBE0F901F9018951F9253
:100600000F920FB60F9211242F933F934F935F9346
:100610006F937F938F939F93AF93BF93EF93FF93CA
:1006200086E191E00E941F02FF91EF91BF91AF918F
:100630009F918F917F916F915F914F913F912F91FA
:100640000F900FBE0F901F9018951F920F920FB62C
:100650000F9211242F938F939F93EF93FF93E09129
:100660002601F09127018081E0912C01F0912D016C
:1006700082FD12C0908180912F018F5F8F73209136
:100680003001821751F0E0912F01F0E0EA5EFE4F59
:10069000958F80932F0101C08081FF91EF919F91F1
:1006A0008F912F910F900FBE0F901F901895CF93A1
:1006B000DF93CDB7DEB76C970FB6F894DEBF0FBEF1
:1006C000CDBF789484B5826084BD84B5816084BDDB
:1006D00085B5826085BD85B5816085BD80916E00E0
:1006E000816080936E001092810080918100826011
:1006F000809381008091810081608093810080914E
:1007000080008160809380008091B100846080933C
:10071000B1008091B00081608093B00080917A0038
:10072000846080937A0080917A00826080937A005E
:1007300080917A00816080937A0080917A0080684D
:1007400080937A001092C10061E088E00E940E015F
:1007500060E082E00E940E0161E089E00E940E01EB
:1007600060E083E00E940E01E0912601F0912701F4
:1007700082E08083E0912201F09123011082E091D8
:100780002401F09125018FEC808310922E01E091DD
:100790002A01F0912B0186E08083E0912801F091FD
:1007A0002901808180618083E0912801F0912901F5
:1007B000808188608083E0912801F0912901808107
:1007C00080688083E0912801F091290180818F7DEC
:1007D000808380E480937C0080917A0080648093A1
:1007E0007A0080917A0086FDFCCF6091780080913C
:1007F000790070E0782B072E000C880B990B61159F
:1008000071058105910511F00E94C7052DB73EB70E
:100810003A8F298F7E0135E1E30EF11C8E010F5FC7
:100820001F4F0E94C20522E030E040E050E00E94ED
:10083000D005DC01CB010196A11DB11DF80181930A
:1008400091938F01EE15FF0561F796EB492E93E02A
:10085000592E612C712C2AEFC22ED12CE12CF12CB7
:1008600022242394312C2DB73EB73C8F2B8F60ED83
:1008700077E080E090E00E946F019101220F331F2A
:100880003E8B2D8B8DB79EB7821B930B0FB6F894C2
:100890009EBF0FBE8DBF0DB71EB70F5F1F4F188FC6
:1008A0000F8BF801DE01119680E090E08215930530
:1008B00034F42D913D91219331930196F7CFA12CE2
:1008C000B12CA214B304B9F1F801819091908F0179
:1008D00060E088E00E94DE0060E089E00E94DE00C7
:1008E000F1E08F16910479F4C301B2010E946F0107
:1008F00061E088E00E94DE00C301B2010E946F0146
:1009000060E088E012C022E08216910481F4C30105
:10091000B2010E946F0161E089E00E94DE00C30124
:10092000B2010E946F0160E089E00E94DE003FEFAB
:10093000A31AB30AC6CF8DB79EB72D893E89821BF5
:10094000930B0FB6F8949EBF0FBE8DBF2DB73EB769
:100950002F5F3F4F3E8B2D8B4901A12CB12CA21450
:10096000B30454F500E010E001151105B9F482E07C
:100970000E94B500019739F482E00E94B50001970A
:10098000D9F301E010E083E00E94B500019761F720
:1009900083E00E94B50002E010E0F8CF6AEF70E05B
:1009A00080E090E00E946F01F401019311934F01E8
:1009B000FFEFAF1ABF0AD3CF80E090E021E030E034
:1009C000821593059CF4EF89F88D61917191F88FF0
:1009D000EF8BED89FE8941915191FE8BED8B641770
:1009E000750711F020E030E00196EACF05E010E055
:1009F00021303105A1F461E088E00E94DE00C701EA
:100A0000B6010E946F0160E088E00E94DE00C7012D
:100A1000B6010E946F010150110969F715C061E02C
:100A200089E00E94DE00C701B6010E946F0160E00C
:100A300089E00E94DE00C701B6010E946F010150EB
:100A4000110969F7F8010995FFEF2F1A3F0A2B8D5D
:100A50003C8D0FB6F8943EBF0FBE2DBF33E2C31AD4
:100A6000D108E108F10882E3481A510861087108C9
:100A70009AE02916310409F0F6CEE98DFA8D0FB609
:100A8000F894FEBF0FBEEDBF0E94A902BFCEE6E103
:100A9000F1E01382128288EE93E0A0E0B0E084835C
:100AA0009583A683B78388E091E09183808385EC6A
:100AB00090E09587848784EC90E09787868780EC28
:100AC00090E0918B808B81EC90E0938B828B82EC19
:100AD00090E0958B848B86EC90E0978B868B118EC3
:100AE000128E138E148E08958F929F92AF92BF92A2
:100AF000CF92DF92EF92FF92CF93DF93EC01688168
:100B000079818A819B81611571058105910521F4A7
:100B100064E279ED8BE597E02DE133EF41E050E0C1
:100B20000E94D00549015A019B01AC01A7EAB1E43A
:100B30000E94EF056B017C01ACEEB4EFA5019401BE
:100B40000E94FD05DC01CB018C0D9D1DAE1DBF1D5E
:100B5000B7FF03C00197A109B04888839983AA838E
:100B6000BB83BC01CD019F77DF91CF91FF90EF90C8
:100B7000DF90CF90BF90AF909F908F9008950E948C
:100B80007405089580E091E00E94740508956093D3
:100B90000001709301018093020190930301089575
:100BA000052E97FB1EF400940E94E70557FD07D021
:100BB0000E94020607FC03D04EF40C94E705509502
:100BC0004095309521953F4F4F4F5F4F0895909539
:100BD0008095709561957F4F8F4F9F4F08950E942C
:100BE0002406A59F900DB49F900DA49F800D911D8C
:100BF00011240895B7FF0C94EF050E94EF05821BA6
:100C0000930B0895A1E21A2EAA1BBB1BFD010DC078
:100C1000AA1FBB1FEE1FFF1FA217B307E407F507AC
:100C200020F0A21BB30BE40BF50B661F771F881F88
:100C3000991F1A9469F760957095809590959B011E
:100C4000AC01BD01CF010895A29FB001B39FC001C7
:100C5000A39F700D811D1124911DB29F700D811DE8
:100C60001124911D0895EE0FFF1F0590F491E02DC2
:100C7000099481E090E0F8940C943E06F894FFCF3C
:100C800001000000000000004002A901D801870215
:060C90000902E701FB016F
:00000001FF
