:100000000C9462000C948A000C948A000C948A0070
:100010000C948A000C948A000C948A000C948A0038
:100020000C948A000C948A000C948A000C948A0028
:100030000C948A000C948A000C948A000C948A0018
:100040000C94B5020C948A000C9425030C94FF02C6
:100050000C948A000C948A000C948A000C948A00F8
:100060000C948A000C948A000000000024002700F1
:100070002A0000000000250028002B0000000000DE
:1000800023002600290004040404040404040202DA
:100090000202020203030303030301020408102007
:1000A0004080010204081020010204081020000012
:1000B0000008000201000003040700000000000027
:1000C0000000370511241FBECFEFD8E0DEBFCDBF43
:1000D00011E0A0E0B1E0E0E6FCE002C005900D9286
:1000E000A631B107D9F721E0A6E1B1E001C01D9228
:1000F000AC3BB207E1F710E0C2E6D0E004C02197C4
:10010000FE010E942306C136D107C9F70E9457039A
:100110000C942E060C940000833081F028F481307A
:1001200099F08230A1F008958730A9F08830B9F0B5
:100130008430D1F4809180008F7D03C08091800055
:100140008F7780938000089584B58F7702C084B53F
:100150008F7D84BD08958091B0008F7703C080911A
:10016000B0008F7D8093B0000895CF93DF93282F48
:1001700030E0F901E255FF4F8491F901E656FF4F57
:10018000D491F901EA57FF4FC491CC2391F081112A
:100190000E948C00EC2FF0E0EE0FFF1FE458FF4FA1
:1001A000A591B491EC91ED2381E090E021F480E001
:1001B00002C080E090E0DF91CF9108951F93CF932C
:1001C000DF93282F30E0F901E255FF4F8491F901C8
:1001D000E656FF4FD491F901EA57FF4FC491CC2363
:1001E000C9F0162F81110E948C00EC2FF0E0EE0F69
:1001F000FF1FEE58FF4FA591B4918FB7F8941111DE
:1002000005C09C91ED2FE095E92302C0EC91ED2B08
:10021000EC938FBFDF91CF911F910895CF93DF9320
:1002200090E0FC01E656FF4F2491FC01EA57FF4F96
:100230008491882361F190E0880F991FFC01E859AF
:10024000FF4FC591D491FC01EE58FF4FA591B49199
:10025000611109C09FB7F894888120958223888313
:10026000EC912E230BC0623061F49FB7F894388173
:10027000822F809583238883EC912E2B2C939FBF14
:1002800006C08FB7F894E8812E2B28838FBFDF91AB
:10029000CF9108953FB7F8948091B8019091B9013A
:1002A000A091BA01B091BB0126B5A89B05C02F3F14
:1002B00019F00196A11DB11D3FBFBA2FA92F982F8C
:1002C0008827820F911DA11DB11DBC01CD0142E007
:1002D000660F771F881F991F4A95D1F708958F924F
:1002E0009F92AF92BF92CF92DF92EF92FF926B01FB
:1002F0007C010E944A014B015C01C114D104E1045C
:10030000F104F1F00E944A01DC01CB01881999093E
:10031000AA09BB09883E9340A105B10570F321E00D
:10032000C21AD108E108F10888EE880E83E0981E11
:10033000A11CB11CC114D104E104F10419F7DDCFF3
:10034000FF90EF90DF90CF90BF90AF909F908F90F5
:100350000895CF92DF92EF92FF920F931F93CF9366
:10036000DF936C017A018B01C0E0D0E0CE15DF0590
:1003700089F0D8016D918D01D601ED91FC9101902C
:10038000F081E02DC6010995892B11F47E0102C090
:100390002196ECCFC701DF91CF911F910F91FF9074
:1003A000EF90DF90CF900895089580E090E0089559
:1003B000FC01538D448D252F30E0842F90E0821B6B
:1003C000930B541710F0CF96089501970895FC01F0
:1003D000918D828D981761F0828DDF01A80FB11D7C
:1003E0005D968C91928D9F5F9F73928F90E00895A0
:1003F0008FEF9FEF0895FC01918D828D981731F05A
:10040000828DE80FF11D858D90E008958FEF9FEFAD
:100410000895FC01918D228D892F90E0805C9F4F83
:10042000821B91098F739927089586E191E00E94BC
:10043000090221E0892B09F420E0822F0895FC01B4
:10044000848DDF01A80FB11DA35ABF4F2C91848D5D
:1004500090E001968F739927848FA689B7892C9392
:10046000A089B1898C9180648C93938D848D98132D
:1004700006C00288F389E02D80818F7D80830895F6
:10048000EF92FF920F931F93CF93DF93EC0181E0E4
:10049000888F9B8D8C8D981305C0E889F9898081A0
:1004A00085FD24C0F62E0B8D10E00F5F1F4F0F73DC
:1004B0001127E02E8C8DE8120CC00FB607FCFACF86
:1004C000E889F989808185FFF5CFCE010E941F025E
:1004D000F1CF8B8DFE01E80FF11DE35AFF4FF08243
:1004E0000B8FEA89FB898081806207C0EE89FF89D2
:1004F0006083E889F98980818064808381E090E06D
:10050000DF91CF911F910F91FF90EF900895CF93BE
:10051000DF93EC01888D8823C9F0EA89FB8980810B
:1005200085FD05C0A889B9898C9186FD0FC00FB6DD
:1005300007FCF5CF808185FFF2CFA889B9898C911E
:1005400085FFEDCFCE010E941F02E7CFDF91CF9153
:10055000089580E090E0892B29F00E941502811116
:100560000C94000008950E9429061F920F920FB666
:100570000F9211242F933F938F939F93AF93BF9329
:100580008091B4019091B501A091B601B091B701ED
:100590003091B30123E0230F2D3720F40196A11DE4
:1005A000B11D05C026E8230F0296A11DB11D2093A1
:1005B000B3018093B4019093B501A093B601B093B9
:1005C000B7018091B8019091B901A091BA01B091A1
:1005D000BB010196A11DB11D8093B8019093B90193
:1005E000A093BA01B093BB01BF91AF919F918F913E
:1005F0003F912F910F900FBE0F901F9018951F9253
:100600000F920FB60F9211242F933F934F935F9346
:100610006F937F938F939F93AF93BF93EF93FF93CA
:1006200086E191E00E941F02FF91EF91BF91AF918F
:100630009F918F917F916F915F914F913F912F91FA
:100640000F900FBE0F901F9018951F920F920FB62C
:100650000F9211242F938F939F93EF93FF93E09129
:100660002601F09127018081E0912C01F0912D016C
:1006700082FD12C0908180912F018F5F8F73209136
:100680003001821751F0E0912F01F0E0EA5EFE4F59
:10069000958F80932F0101C08081FF91EF919F91F1
:1006A0008F912F910F900FBE0F901F901895CF93A1
:1006B000DF93CDB7DEB76A970FB6F894DEBF0FBEF3
:1006C000CDBF789484B5826084BD84B5816084BDDB
:1006D00085B5826085BD85B5816085BD80916E00E0
:1006E000816080936E001092810080918100826011
:1006F000809381008091810081608093810080914E
:1007000080008160809380008091B100846080933C
:10071000B1008091B00081608093B00080917A0038
:10072000846080937A0080917A00826080937A005E
:1007300080917A00816080937A0080917A0080684D
:1007400080937A001092C10061E088E00E940E015F
:1007500060E082E00E940E0161E089E00E940E01EB
:1007600060E083E00E940E01E0912601F0912701F4
:1007700082E08083E0912201F09123011082E091D8
:100780002401F09125018FEC808310922E01E091DD
:100790002A01F0912B0186E08083E0912801F091FD
:1007A0002901808180618083E0912801F0912901F5
:1007B000808188608083E0912801F0912901808107
:1007C00080688083E0912801F091290180818F7DEC
:1007D000808380E480937C0080917A0080648093A1
:1007E0007A0080917A0086FDFCCF6091780080913C
:1007F000790070E0782B072E000C880B990B61159F
:1008000071058105910511F00E94B705CE0145964D
:100810009E8B8D8B52E0452E512C612C712CEDB7A7
:10082000FEB7F88FEF8B8E010F5F1F4F0E94B2054E
:10083000A30192010E94C005DC01CB010196A11D1C
:10084000B11DF801819391938F018D899E89E817DD
:10085000F90761F701E010E0EDB7FEB7FA8FE98F15
:1008600060ED77E080E090E00E946F015801AA0CF3
:10087000BB1C8DB79EB78A199B090FB6F8949EBF13
:100880000FBE8DBFEDB7FEB731967F011F01DE01B0
:10089000119680E090E08017910734F42D913D91FE
:1008A000219331930196F7CFC12CD12CC016D106DC
:1008B000C9F1F701819091907F0160E088E00E948A
:1008C000DE0060E089E00E94DE00F1E08F16910416
:1008D00069F461E088E00E94DE0068EE73E080E089
:1008E00090E00E946F0160E088E010C082E088160E
:1008F0009104A1F461E089E00E94DE0068EE73E0FB
:1009000080E090E00E946F0160E089E00E94DE00DC
:1009100068EE73E080E090E00E946F019FEFC91ADB
:10092000D90AC4CFEDB7FEB7EA19FB090FB6F894A0
:10093000FEBF0FBEEDBF8DB79EB701966C014C0197
:10094000A12CB12CA016B10664F5E12CF12CE11418
:10095000F104C9F482E00E94B500019741F482E0FD
:100960000E94B5000197D9F3EE24E394F12C83E0C3
:100970000E94B500019759F783E00E94B50022E07C
:10098000E22EF12CF7CF6AEF70E080E090E00E9459
:100990006F01F401E192F1924F01FFEFAF1ABF0A2C
:1009A000D1CF80E090E021E030E0801791077CF427
:1009B000F101619171911F01F601419151916F0116
:1009C0006417750711F020E030E00196EECF85E066
:1009D000E82EF12C21303105C9F461E088E00E9455
:1009E000DE006AEF70E080E090E00E946F0160E05E
:1009F00088E00E94DE006AEF70E080E090E00E94F4
:100A00006F01F1E0EF1AF10841F71AC061E089E0E7
:100A10000E94DE006AEF70E080E090E00E946F01CB
:100A200060E089E00E94DE006AEF70E080E090E024
:100A30000E946F0181E0E81AF10841F7F70109957A
:100A40000F5F1F4F898D9A8D0FB6F8949EBF0FBE12
:100A50008DBF0A30110509F0FFCEEF89F88D0FB672
:100A6000F894FEBF0FBEEDBF0E94A902D8CEE6E10A
:100A7000F1E01382128288EE93E0A0E0B0E084837C
:100A80009583A683B78388E091E09183808385EC8A
:100A900090E09587848784EC90E09787868780EC48
:100AA00090E0918B808B81EC90E0938B828B82EC39
:100AB00090E0958B848B86EC90E0978B868B118EE3
:100AC000128E138E148E08958F929F92AF92BF92C2
:100AD000CF92DF92EF92FF92CF93DF93EC01688188
:100AE00079818A819B81611571058105910521F4C8
:100AF00064E279ED8BE597E02DE133EF41E050E0E2
:100B00000E94C00549015A019B01AC01A7EAB1E46A
:100B10000E94DF056B017C01ACEEB4EFA5019401EE
:100B20000E94ED05DC01CB018C0D9D1DAE1DBF1D8E
:100B3000B7FF03C00197A109B04888839983AA83AE
:100B4000BB83BC01CD019F77DF91CF91FF90EF90E8
:100B5000DF90CF90BF90AF909F908F9008950E94AC
:100B60006405089580E091E00E9464050895609313
:100B70000001709301018093020190930301089595
:100B8000052E97FB1EF400940E94D70557FD07D051
:100B90000E94F20507FC03D04EF40C94D705509543
:100BA0004095309521953F4F4F4F5F4F0895909559
:100BB0008095709561957F4F8F4F9F4F08950E944C
:100BC0001406A59F900DB49F900DA49F800D911DBC
:100BD00011240895B7FF0C94DF050E94DF05821BE6
:100BE000930B0895A1E21A2EAA1BBB1BFD010DC099
:100BF000AA1FBB1FEE1FFF1FA217B307E407F507CD
:100C000020F0A21BB30BE40BF50B661F771F881FA8
:100C1000991F1A9469F760957095809590959B013E
:100C2000AC01BD01CF010895A29FB001B39FC001E7
:100C3000A39F700D811D1124911DB29F700D811D08
:100C40001124911D0895EE0FFF1F0590F491E02DE2
:100C5000099481E090E0F8940C942E06F894FFCF6C
:100C600001000000000000004002A901D801870235
:060C70000902E701FB018F
:00000001FF
