:100000000C9462000C948A000C948A000C948A0070
:100010000C948A000C948A000C948A000C948A0038
:100020000C948A000C948A000C948A000C948A0028
:100030000C948A000C948A000C948A000C948A0018
:100040000C9413040C948A000C9483040C945D04A7
:100050000C948A000C948A000C948A000C948A00F8
:100060000C948A000C948A000000000024002700F1
:100070002A0000000000250028002B0000000000DE
:1000800023002600290004040404040404040202DA
:100090000202020203030303030301020408102007
:1000A0004080010204081020010204081020000012
:1000B0000008000201000003040700000000000027
:1000C0000000DD0711241FBECFEFD8E0DEBFCDBF9B
:1000D00017E0A0E0B1E0ECEFF1E102C005900D9275
:1000E000A633B107D9F727E0A6E3B7E001C01D9218
:1000F000AC3DB207E1F710E0C2E6D0E004C02197C2
:10010000FE010E94F108C136D107C9F70E94B5046B
:100110000C94FC080C9400002FB7F89480913B07D6
:1001200090913C07A0913D07B0913E072FBF80936F
:10013000470790934807A0934907B0934A07E09177
:100140003F07F09140070484F585E02D8FE397E0A9
:10015000099597FF26C02FB7F89480913B0790919F
:100160003C07A0913D07B0913E072FBF4091470744
:10017000509148076091490770914A07841B950B7D
:10018000A60BB70B40914307509144076091450778
:100190007091460784179507A607B70780F28FEF7F
:1001A0009FEF0895833081F028F4813099F08230F8
:1001B000A1F008958730A9F08830B9F08430D1F4E7
:1001C000809180008F7D03C0809180008F77809325
:1001D0008000089584B58F7702C084B58F7D84BD7B
:1001E00008958091B0008F7703C08091B0008F7D1B
:1001F0008093B0000895CF93DF93282F30E0F9016A
:10020000E255FF4F8491F901E656FF4FD491F90171
:10021000EA57FF4FC491CC2391F081110E94D20084
:10022000EC2FF0E0EE0FFF1FE458FF4FA591B491C3
:10023000EC91ED2381E090E021F480E002C080E0C9
:1002400090E0DF91CF9108951F93CF93DF93282FF4
:1002500030E0F901E255FF4F8491F901E656FF4F76
:10026000D491F901EA57FF4FC491CC23C9F0162F5E
:1002700081110E94D200EC2FF0E0EE0FFF1FEE582C
:10028000FF4FA591B4918FB7F894111105C09C91BF
:10029000ED2FE095E92302C0EC91ED2BEC938FBF9D
:1002A000DF91CF911F910895CF93DF9390E0FC01F0
:1002B000E656FF4F2491FC01EA57FF4F84918823B3
:1002C00061F190E0880F991FFC01E859FF4FC5913B
:1002D000D491FC01EE58FF4FA591B491611109C072
:1002E0009FB7F8948881209582238883EC912E23F0
:1002F0000BC0623061F49FB7F8943881822F8095EB
:1003000083238883EC912E2B2C939FBF06C08FB73D
:10031000F894E8812E2B28838FBFDF91CF91089529
:100320003FB7F8948091370790913807A09139072B
:10033000B0913A0726B5A89B05C02F3F19F001964A
:10034000A11DB11D3FBFBA2FA92F982F8827820F5B
:10035000911DA11DB11DBC01CD0142E0660F771FAB
:10036000881F991F4A95D1F708958F929F92AF9257
:10037000BF92CF92DF92EF92FF926B017C010E94BD
:1003800090014B015C01C114D104E104F104F1F0CE
:100390000E949001DC01CB0188199909AA09BB09C7
:1003A000883E9340A105B10570F321E0C21AD1083F
:1003B000E108F10888EE880E83E0981EA11CB11CAC
:1003C000C114D104E104F10419F7DDCFFF90EF90DF
:1003D000DF90CF90BF90AF909F908F900895CF9275
:1003E000DF92EF92FF920F931F93CF93DF936C01F5
:1003F0007A018B01C0E0D0E0CE15DF0589F0D8018D
:100400006D918D01D601ED91FC910190F081E02D6F
:10041000C6010995892B11F47E0102C02196ECCF0B
:10042000C701DF91CF911F910F91FF90EF90DF9067
:10043000CF900895089580E090E00895FC01538DD9
:10044000448D252F30E0842F90E0821B930B5417AE
:1004500010F0CF96089501970895FC01918D828D3B
:10046000981761F0828DDF01A80FB11D5D968C9108
:10047000928D9F5F9F73928F90E008958FEF9FEF13
:100480000895FC01918D828D981731F0828DE80FCF
:10049000F11D858D90E008958FEF9FEF0895FC0189
:1004A000918D228D892F90E0805C9F4F821B910956
:1004B0008F73992708958FE397E00E944F0221E000
:1004C000892B09F420E0822F0895FC01848DDF013F
:1004D000A80FB11DA35ABF4F2C91848D90E00196B7
:1004E0008F739927848FA689B7892C93A089B189A6
:1004F0008C9180648C93938D848D981306C00288B0
:10050000F389E02D80818F7D80830895EF92FF92A3
:100510000F931F93CF93DF93EC0181E0888F9B8D26
:100520008C8D981305C0E889F989808185FD24C0E8
:10053000F62E0B8D10E00F5F1F4F0F731127E02E6B
:100540008C8DE8120CC00FB607FCFACFE889F98948
:10055000808185FFF5CFCE010E946502F1CF8B8DA2
:10056000FE01E80FF11DE35AFF4FF0820B8FEA897D
:10057000FB898081806207C0EE89FF896083E889FA
:10058000F98980818064808381E090E0DF91CF9160
:100590001F910F91FF90EF900895CF93DF93EC019F
:1005A000888D8823C9F0EA89FB89808185FD05C093
:1005B000A889B9898C9186FD0FC00FB607FCF5CFCD
:1005C000808185FFF2CFA889B9898C9185FFEDCF15
:1005D000CE010E946502E7CFDF91CF91089580E0C0
:1005E00090E0892B29F00E945B0281110C9400009D
:1005F0000895FF920F931F93CF93DF9300D000D005
:10060000CDB7DEB70E948C00FC0197FD11C08D3282
:10061000910591F0C0970A9778F0E0913F07F0912B
:1006200040070284F385E02D8FE397E00995EACF38
:1006300080E090E0DC012BC020E030E0A901F12C4B
:10064000E130F10589F5E0913F07F0914007028420
:10065000F385E02D8FE397E029833A834B835C8316
:1006600009950E948C00FC01C09729813A814B8139
:100670005C810A9728F3E130F10511F3FF2099F12D
:1006800088279927DC01821B930BA40BB50B0097DD
:1006900009F4B8CF0F900F900F900F90DF91CF918A
:1006A0001F910F91FF900895ED32F105C9F0CF0130
:1006B000C0970A9740F6AAE0B0E00E9485088F0133
:1006C000FF0F220B330BDC01CB01800F911FA21F08
:1006D000B31F9C01AD012053310941095109B3CF2A
:1006E000FF24F394B0CFDA01C901D1CF009769F0AC
:1006F000FC0101900020E9F73197AF01481B590B2D
:10070000BC018FE397E00C94EF0180E090E0089546
:10071000CF93DF930E947603EC0186E191E00E9483
:1007200076038C0F9D1FDF91CF9108958F929F923A
:10073000AF92BF92CF92DF92EF92FF920F931F93EF
:10074000CF93DF93CDB7DEB7A1970FB6F894DEBF96
:100750000FBECDBF6C01990FEE08FF08F7FE31C048
:10076000E0913F07F09140070190F081E02D6DE2AC
:100770008FE397E009958C0122273327A9012C19D3
:100780003D094E095F0919A2CE0181967C019AE0CC
:10079000892E912CA12CB12CCA01B901A50194017B
:1007A0000E949808605DF70162937F012115310571
:1007B0004105510589F7CF010E947603800F911FF3
:1007C0001DC0A701960119A28E010F5D1F4F8AE07F
:1007D000C82ED12CE12CF12CCA01B901A701960138
:1007E0000E949808605DF80162938F012115310520
:1007F0004105510589F7CF010E947603A1960FB6F6
:10080000F894DEBF0FBECDBFDF91CF911F910F9146
:10081000FF90EF90DF90CF90BF90AF909F908F9020
:1008200008950E94F7081F920F920FB60F9211249D
:100830002F933F938F939F93AF93BF9380913B07E9
:1008400090913C07A0913D07B0913E07309136074B
:1008500023E0230F2D3720F40196A11DB11D05C003
:1008600026E8230F0296A11DB11D20933607809321
:100870003B0790933C07A0933D07B0933E078091C0
:10088000370790913807A0913907B0913A07019640
:10089000A11DB11D8093370790933807A0933907A6
:1008A000B0933A07BF91AF919F918F913F912F9154
:1008B0000F900FBE0F901F9018951F920F920FB6BA
:1008C0000F9211242F933F934F935F936F937F93D6
:1008D0008F939F93AF93BF93EF93FF938FE397E033
:1008E0000E946502FF91EF91BF91AF919F918F910F
:1008F0007F916F915F914F913F912F910F900FBE1C
:100900000F901F9018951F920F920FB60F921124FF
:100910002F938F939F93EF93FF93E0914F07F09165
:1009200050078081E0915507F091560782FD12C073
:100930009081809158078F5F8F732091590782179C
:1009400051F0E0915807F0E0E15CF84F958F80930B
:10095000580701C08081FF91EF919F918F912F9156
:100960000F900FBE0F901F901895CF93DF93CDB7C8
:10097000DEB764970FB6F894DEBF0FBECDBF789494
:1009800084B5826084BD84B5816084BD85B5826094
:1009900085BD85B5816085BD80916E008160809345
:1009A0006E001092810080918100826080938100AE
:1009B00080918100816080938100809180008160BE
:1009C000809380008091B10084608093B100809119
:1009D000B00081608093B00080917A008460809341
:1009E0007A0080917A00826080937A0080917A0008
:1009F000816080937A0080917A00806880937A0089
:100A00001092C10061E088E00E94540160E082E041
:100A10000E94540161E089E00E94540160E083E09B
:100A20000E945401E0914F07F091500782E08083CB
:100A3000E0914B07F0914C071082E0914D07F09147
:100A40004E078FEC808310925707E0915307F09187
:100A5000540786E08083E0915107F091520780812E
:100A600080618083E0915107F09152078081886016
:100A70008083E0915107F0915207808180688083E4
:100A8000E0915107F091520780818F7D808380E44F
:100A900080937C0080917A00806480937A008091BA
:100AA0007A0086FDFCCF609178008091790070E03B
:100AB000782B072E000C880B990B611571058105A9
:100AC000910511F00E945D082DB73EB73C872B873A
:100AD000E0EDEE2EE7E0FE2E88EE93E09C838B8324
:100AE000FBE02F2E312C412C512C08EE13E020E19D
:100AF000421627E252060CF0F8C08FB7F8944090E7
:100B00003B0750903C0760903D0770903E078FBFB9
:100B10008FE397E00E944F021816190614F4412C37
:100B2000512C8FE397E00E944F0218161906FCF62D
:100B30008FE397E00E94CD028FE397E00E94CD0201
:100B400089E191E00E94880386E791E00E94880392
:100B500081ED91E00E94880383E092E00E94880387
:100B600085E592E00E9488038DE992E00E94880367
:100B700084EC92E00E94880386ED93E00E94880353
:100B80000E94F9026C018FE397E00E94CD0291E090
:100B9000C916D10459F58AED92E00E9488038CE1D0
:100BA00093E00E94880387E693E00E9488038AE925
:100BB00093E00E9488038EEC93E00E94880385ED09
:100BC00093E00E9488030E94F9026C010097D9F318
:100BD0001C01AFEF2A1A3A0A83EF93E00E948803C0
:100BE000C6010E94960387E593E066C0B2E0CB168B
:100BF000D10409F588E194E00E94880385E894E037
:100C00000E94880385EB94E00E9488038BE195E0C5
:100C10000E9488038AE295E00E9488030E94F902FC
:100C20000097E1F39C838B8388E795E00E9476032D
:100C30008B819C811AC0E3E0CE16D104F9F480EBDD
:100C400095E00E94880384EF95E00E94880385E286
:100C500096E00E9488030E94F9027C01892BD9F357
:100C60008AE496E00E947603C701B8010E94C90891
:100C7000CB010E94960382EA95E01EC0F4E0CF16F5
:100C8000D10409F059CF88E796E00E9488038FEAE3
:100C900096E00E94880386EC96E00E9488038DEC23
:100CA00096E00E9488030E94F9020097E1F38230E7
:100CB000910529F486ED96E00E9488033DCF0197C7
:100CC00009F03ACF80E097E00E94880368EB7BE070
:100CD00080E090E00E94B5018FE397E00E94CD0292
:100CE00070E2472E7EE4572E02CFC101880F991F74
:100CF000ADB7BEB7A81BB90B0FB6F894BEBF0FBEF9
:100D0000ADBFEDB7FEB73196FA87E9876F0100E016
:100D100010E002151305A4F40E94580822E030E008
:100D200040E050E00E946608DC01CB010196A11D65
:100D3000B11DF601819391936F010F5F1F4FE9CFB2
:100D40002B813C81225331093E832D835AEF452E5E
:100D5000512C612C712C01E010E0C701FF0CAA0B93
:100D6000BB0B8F87988BA98BBA8B021513050CF0E0
:100D70001AC12DB73EB73E872D876F85788989893F
:100D80009A890E94B5019801220F331F3A83298363
:100D90008DB79EB7821B930B0FB6F8949EBF0FBE04
:100DA0008DBFADB7BEB711967D01B887AF83E9851A
:100DB000FA8580E090E08017910734F42191319119
:100DC0002D933D930196F7CFEB81FC81E93CF10532
:100DD0001CF08D819E8102C088EC90E04C01990F3F
:100DE000AA08BB08C12CD12CC016D106C9F1D70165
:100DF0002D913D917D0160E088E02B8B3C8B0E9422
:100E0000240160E089E00E9424012B893C89213083
:100E1000310579F4C501B4010E94B50161E088E0B3
:100E20000E942401C501B4010E94B50160E088E080
:100E300011C02230310581F4C501B4010E94B50111
:100E400061E089E00E942401C501B4010E94B5015E
:100E500060E089E00E942401BFEFCB1ADB0AC4CF17
:100E6000EDB7FEB729813A81E21BF30B0FB6F89478
:100E7000FEBF0FBEEDBF2DB73EB72F5F3F4F3A838A
:100E800029835901C12CD12CC016D10664F5E12C5F
:100E9000F12CE114F104C9F482E00E94FB000197F7
:100EA00041F482E00E94FB000197D9F3EE24E39421
:100EB000F12C83E00E94FB00019759F783E00E9428
:100EC000FB0022E0E22EF12CF7CF6AEF70E080E029
:100ED00090E00E94B501D501ED92FD925D01BFEF5A
:100EE000CB1ADB0AD1CF80E090E021E030E0801720
:100EF00091079CF4EF81F88561917191F887EF83F8
:100F0000A981BA814D915D91BA83A9836417750750
:100F100011F020E030E00196EACF85E0E82EF12CD8
:100F200021303105A9F461E088E00E942401C30169
:100F3000B2010E94B50160E088E00E942401C30173
:100F4000B2010E94B501B1E0EB1AF10861F716C0D9
:100F500061E089E00E942401C301B2010E94B50151
:100F600060E089E00E942401C301B2010E94B50142
:100F7000E1E0EE1AF10861F7F70109950F5F1F4FE5
:100F80002D853E850FB6F8943EBF0FBE2DBF33E2D0
:100F9000431A5108610871082D813E81225331099D
:100FA0003E832D83E2CE8B859C850FB6F8949EBF41
:100FB0000FBE8DBF0E94EF0287CDEFE3F7E01382F3
:100FC000128288EE93E0A0E0B0E084839583A6834C
:100FD000B78388E091E09183808385EC90E09587EA
:100FE000848784EC90E09787868780EC90E0918BF3
:100FF000808B81EC90E0938B828B82EC90E0958BE0
:10100000848B86EC90E0978B868B118E128E138EDC
:10101000148E08958F929F92AF92BF92CF92DF92DB
:10102000EF92FF92CF93DF93EC01688179818A81FF
:101030009B81611571058105910521F464E279EDCB
:101040008BE597E02DE133EF41E050E00E94660828
:1010500049015A019B01AC01A7EAB1E40E9485084D
:101060006B017C01ACEEB4EFA50194010E949308E2
:10107000DC01CB018C0D9D1DAE1DBF1DB7FF03C054
:101080000197A109B04888839983AA83BB83BC01D7
:10109000CD019F77DF91CF91FF90EF90DF90CF90C0
:1010A000BF90AF909F908F9008950E940A08089576
:1010B00080E091E00E940A08089560930001709317
:1010C000010180930201909303010895052E97FB7F
:1010D0001EF400940E947D0857FD07D00E949808D6
:1010E00007FC03D04EF40C947D0850954095309544
:1010F00021953F4F4F4F5F4F089590958095709584
:1011000061957F4F8F4F9F4F08950E94BA08A59F0A
:10111000900DB49F900DA49F800D911D11240895F2
:10112000B7FF0C9485080E948508821B930B0895D5
:10113000A1E21A2EAA1BBB1BFD010DC0AA1FBB1FDB
:10114000EE1FFF1FA217B307E407F50720F0A21B4D
:10115000B30BE40BF50B661F771F881F991F1A94BA
:1011600069F760957095809590959B01AC01BD01E4
:10117000CF010895A29FB001B39FC001A39F700D3E
:10118000811D1124911DB29F700D811D1124911D8F
:10119000089597FB072E16F4009407D077FD09D029
:1011A0000E94DD0807FC05D03EF4909581959F4F85
:1011B0000895709561957F4F0895AA1BBB1B51E15F
:1011C00007C0AA1FBB1FA617B70710F0A61BB70BB7
:1011D000881F991F5A95A9F780959095BC01CD015C
:1011E0000895EE0FFF1F0590F491E02D099481E022
:0C11F00090E0F8940C94FC08F894FFCFF9
:1011FC0001000000000000008602EF011E02CD027B
:10120C004F022D0241020D0A00D094D0BED0B1D1B4
:10121C0080D0BE20D0BFD0BED0B6D0B0D0BBD0BE58
:10122C00D0B2D0B0D182D18C20D0B220D0B8D0BD29
:10123C00D182D0B5D180D184D0B5D0B9D18120D1D3
:10124C0080D0B5D0B4D0B0D0BAD182D0B8D180D003
:10125C00BED0B2D0B0D0BDD0B8D18F20D0B8D0B322
:10126C00D180D18B2100D092D0B5D0B5D0B4D0B82C
:10127C00D182D0B520D0BDD0BED0BCD0B5D18020CD
:10128C00D0BDD0B0D181D182D180D0BED0B9D0BAAE
:10129C00D0B82C20D0BAD0BED182D0BED180D183D0
:1012AC00D18E20D185D0BED182D0B8D182D0B520FC
:1012BC00D0B8D0B7D0BCD0B5D0BDD0B8D182D18C3D
:1012CC000031202D20D098D0B7D0BCD0B5D0BDD017
:1012DC00B5D0BDD0B8D0B520D0BAD0BED0BB2DD0F3
:1012EC00B2D0B020D180D0B0D183D0BDD0B4D0BEDC
:1012FC00D0B20032202D20D098D0B7D0BCD0B5D0F1
:10130C00BDD0B5D0BDD0B8D0B520D181D0BAD0BE6B
:10131C00D180D0BED181D182D0B820D0BFD180D0E5
:10132C00BED0BCD0B8D0B3D0B8D0B2D0B0D0BDD075
:10133C00B8D18F20D0BBD0B0D0BCD0BFD0BED1875D
:10134C00D0B5D0BA0033202D20D098D0B7D0BCD097
:10135C00B5D0BDD0B5D0BDD0B8D0B520D0BFD18020
:10136C00D0BED0BCD0B5D0B6D183D182D0BAD0B09B
:10137C0020D0BCD0B5D0B6D0B4D18320D180D0B0E1
:10138C00D183D0BDD0B4D0B0D0BCD0B80034202DD7
:10139C0020D092D18BD185D0BED0B420D0B8D0B7CC
:1013AC0020D0BDD0B0D181D182D180D0BED0B9D027
:1013BC00BAD0B800D096D0B4D18320D0BAD0BED099
:1013CC00BCD0B0D0BDD0B4D18B00D092D18B20D0BA
:1013DC00B2D18BD0B1D180D0B0D0BBD0B820D09806
:1013EC00D097D09CD095D09DD095D09DD098D095AD
:1013FC0020D09AD09ED09B2DD092D09020D0A0D02F
:10140C0090D0A3D09DD094D09ED09200D090D0B24A
:10141C00D182D0BED0BCD0B0D182D0B8D187D0B51B
:10142C00D181D0BAD0B820D181D182D0BED0B8D1A0
:10143C008220D0BDD0B0D181D182D180D0BED0B9E4
:10144C00D0BAD0B020313020D180D0B0D183D0BD33
:10145C00D0B4D0BED0B200D0A7D182D0BED0B1D142
:10146C008B20D0B5D0B520D0BDD0B520D0BCD0B558
:10147C00D0BDD18FD182D18C2C20D0BDD0B0D0BFDB
:10148C00D0B8D188D0B820313000D09FD180D0BE18
:10149C00D181D182D0BE20D0BDD0B0D0BFD0B8D1F8
:1014AC0088D0B820D187D0B8D181D0BBD0BE20D1C4
:1014BC0080D0B0D183D0BDD0B4D0BED0B200D09645
:1014CC00D0B4D183002D2D2D2D2D2D2D2D2D2D2D49
:1014DC002D2D2D2D2D2D2D2D2D2D2D2D2D2D2D2D30
:1014EC002D2D00D182D0B5D0BFD0B5D180D18C20DC
:1014FC00D0B220D0B8D0B3D180D0B520D0B1D18368
:10150C00D0B4D0B5D1822000D092D18B20D0B2D122
:10151C008BD0B1D180D0B0D0BBD0B820D0BAD0BE97
:10152C00D0BCD0B0D0BDD0B4D18320D0B8D0B7D03F
:10153C00BCD0B5D0BDD0B5D0BDD0B8D18F20D18165
:10154C00D0BAD0BED180D0BED181D182D0B820D07B
:10155C00BFD180D0BED0BCD0B8D0B3D0B8D0B2D070
:10156C00B0D0BDD0B8D18F20D0B4D0B8D0BED0B40C
:10157C00D0BED0B200D0A1D0B5D0B9D187D0B0D127
:10158C008120D180D0B5D0B6D0B8D0BC20D18120AC
:10159C00D183D181D0BAD0BED180D0B5D0BDD0B896
:1015AC00D0B5D0BC00D0A1D0BAD0BED180D0BED1E5
:1015BC0081D182D0B820D0BDD0B0D187D0B8D0BD29
:1015CC00D0B0D0B5D182D181D18F20D0BED18220E4
:1015DC0031D1812E20D0B820D0BCD0B8D0BDD0B85D
:1015EC00D0BCD183D0BC20D0BAD0BED182D0BED199
:1015FC0080D18BD0B920D0BCD0BED0B6D0B5D182E2
:10160C0020D0B1D18BD182D18C2C00D18DD182D074
:10161C00BE20302E3235D1812E00D09DD0B0D0BF1F
:10162C00D0B8D188D0B8D182D0B520D181D0B2D0A9
:10163C00BED18E20D181D0BAD0BED180D0BED181C6
:10164C00D182D18C20D18120D0BAD0BED182D0BE53
:10165C00D180D0BED0B920D0BDD0B0D187D0B8D039
:10166C00BDD0B0D182D18C00D0A2D0B5D0BFD0B576
:10167C00D180D18C20D181D0BAD0BED180D0BED176
:10168C0081D182D18C20D0B1D183D0B4D0B5D182CC
:10169C00200020D181D0B5D0BAD183D0BDD0B40038
:1016AC00D09DD0B0D181D182D180D0BED0B9D0BAAA
:1016BC00D0B020D0BFD180D0BED0BCD0B5D0B6D1A8
:1016CC0083D182D0BAD0B020D0BCD0B5D0B6D0B4F3
:1016DC00D18320D180D0B0D183D0BDD0B4D0B0D004
:1016EC00BCD0B800D09FD0BE20D183D0BCD0BED04F
:1016FC00BBD187D0B0D0BDD0B8D18E20D0BFD180D7
:10170C00D0BED0BCD0B5D0B6D183D182D0BED0BAE9
:10171C002032D18100D09DD0B0D0BFD0B8D188D0EC
:10172C00B820D181D0B2D0BED0B920D0B2D0B0D1F7
:10173C0080D0B8D0B0D0BDD18200D0A2D0B5D0BFAF
:10174C00D0B5D180D18C20D0BFD180D0BED0BCD070
:10175C00B5D0B6D183D182D0BED0BA20D180D0B092
:10176C00D0B2D0B5D0BD2000D092D18B20D0B2D188
:10177C008BD0B1D180D0B0D0BBD0B820D0B2D18B6F
:10178C00D185D0BED0B420D0B8D0B720D0BDD0B089
:10179C00D181D182D180D0BED0B9D0BAD0B800D04E
:1017AC0092D18B20D183D0B2D0B5D180D0B5D0BD61
:1017BC00D0BDD18B3F00313DD0B4D0B000323DD044
:1017CC00BDD0B5D18200D09FD180D0BED0B4D0BE18
:1017DC00D0BBD0B6D0B5D0BDD0B8D0B520D0BDD050
:1017EC00B0D181D182D180D0BED0B9D0BAD0B8001E
:1017FC00D0BDD0B0D187D0B8D0BDD0B0D0B5D0BCD2
:10180C0020D0B8D0B3D180D18320D187D0B5D180AE
:10181C00D0B5D0B7203320D181D0B5D0BAD183D0B8
:06182C00BDD0B4D18B0019
:00000001FF
