:100000000C9461000C947E000C947E000C947E0095
:100010000C947E000C947E000C947E000C947E0068
:100020000C947E000C947E000C947E000C947E0058
:100030000C947E000C947E000C947E000C947E0048
:100040000C94EC010C947E000C947E000C947E00C9
:100050000C947E000C947E000C947E000C947E0028
:100060000C947E000C947E00000000002400270009
:100070002A0000000000250028002B0000000000DE
:1000800023002600290004040404040404040202DA
:100090000202020203030303030301020408102007
:1000A0004080010204081020010204081020000012
:1000B0000008000201000003040700000000000027
:1000C000000011241FBECFEFD8E0DEBFCDBF11E08E
:1000D000A0E0B1E0E0E2F7E002C005900D92A031AF
:1000E000B107D9F721E0A0E1B1E001C01D92A9312B
:1000F000B207E1F70E9436020C948E030C940000C4
:10010000833081F028F4813099F08230A1F0089595
:100110008730A9F08830B9F08430D1F48091800024
:100120008F7D03C0809180008F7780938000089539
:1001300084B58F7702C084B58F7D84BD089580918A
:10014000B0008F7703C08091B0008F7D8093B000A6
:100150000895CF93DF93282F30E0F901E255FF4F48
:100160008491F901E656FF4FD491F901EA57FF4F08
:10017000C491CC2391F081110E948000EC2FF0E01B
:10018000EE0FFF1FE458FF4FA591B491EC91ED23C2
:1001900081E090E021F480E002C080E090E0DF9117
:1001A000CF9108951F93CF93DF93282F30E0F9016B
:1001B000E255FF4F8491F901E656FF4FD491F901C2
:1001C000EA57FF4FC491CC23C9F0162F81110E942A
:1001D0008000EC2FF0E0EE0FFF1FEE58FF4FA591CF
:1001E000B4918FB7F894111105C09C91ED2FE09553
:1001F000E92302C0EC91ED2BEC938FBFDF91CF91FF
:100200001F910895CF93DF9390E0FC01E656FF4FD6
:100210002491FC01EA57FF4F8491882361F190E01B
:10022000880F991FFC01E859FF4FC591D491FC013B
:10023000EE58FF4FA591B491611109C09FB7F89492
:100240008881209582238883EC912E230BC0623015
:1002500061F49FB7F8943881822F80958323888337
:10026000EC912E2B2C939FBF06C08FB7F894E8819A
:100270002E2B28838FBFDF91CF9108953FB7F8943D
:100280008091150190911601A0911701B09118016C
:1002900026B5A89B05C02F3F19F00196A11DB11DE1
:1002A0003FBFBA2FA92F982F8827820F911DA11D1C
:1002B000B11DBC01CD0142E0660F771F881F991F59
:1002C0004A95D1F708958F929F92AF92BF92CF92A5
:1002D000DF92EF92FF926B017C010E943E014B0185
:1002E0005C01C114D104E104F104F1F00E943E016B
:1002F000DC01CB0188199909AA09BB09883E934002
:10030000A105B10570F321E0C21AD108E108F10896
:1003100088EE880E83E0981EA11CB11CC114D10484
:10032000E104F10419F7DDCFFF90EF90DF90CF905B
:10033000BF90AF909F908F900895CF92DF92EF92F1
:10034000FF920F931F93CF93DF936B018C01C0E05B
:10035000D0E0CC15DD05B9F1F801E190F1908F0105
:1003600060E088E00E94D20060E089E00E94D20054
:10037000F1E0EF16F10469F461E088E00E94D20038
:1003800068EE73E080E090E00E94630160E088E046
:1003900010C082E0E816F104A1F461E089E00E9457
:1003A000D20068EE73E080E090E00E94630160E0BC
:1003B00089E00E94D20068EE73E080E090E00E9445
:1003C00063012196C6CFDF91CF911F910F91FF90CE
:1003D000EF90DF90CF9008951F920F920FB60F927B
:1003E00011242F933F938F939F93AF93BF9380914B
:1003F000110190911201A0911301B091140130915B
:10040000100123E0230F2D3720F40196A11DB11D0B
:1004100005C026E8230F0296A11DB11D20931001EF
:100420008093110190931201A0931301B0931401D2
:100430008091150190911601A0911701B0911801BA
:100440000196A11DB11D8093150190931601A093F3
:100450001701B0931801BF91AF919F918F913F9178
:100460002F910F900FBE0F901F901895CF93DF9391
:10047000CDB7DEB762970FB6F894DEBF0FBECDBF23
:10048000789484B5826084BD84B5816084BD85B56F
:10049000826085BD85B5816085BD80916E0081607B
:1004A00080936E0010928100809181008260809321
:1004B0008100809181008160809381008091800023
:1004C0008160809380008091B10084608093B1004E
:1004D0008091B00081608093B00080917A00846048
:1004E00080937A0080917A00826080937A00809174
:1004F0007A00816080937A0080917A00806880938E
:100500007A001092C10061E088E00E94020160E080
:1005100082E00E94020161E089E00E94020160E045
:1005200083E00E94020180E1E0E0F1E0DE0111964B
:1005300001900D928A95E1F7FE013196612C712CA4
:1005400081919191039721F08FEF681A780AF8CF83
:1005500001E010E0061517050CF0D8C060ED77E05B
:1005600080E090E00E9463016DB77EB77801EE0CE9
:10057000FF1CADB7BEB7AE19BF090FB6F894BEBF2A
:100580000FBEADBFEDB7FEB731961F0120E030E0E2
:1005900040E050E02017310799F0CA01F101E80F5F
:1005A000F91FA1E0B0E0AC0FBD1FA80FB91F8D91DE
:1005B0009C91918380832F5F3F4F4E5F5F4FEACFC7
:1005C0000FB6F8947EBF0FBE6DBFB801CE01019685
:1005D0000E949D014DB65EB68DB79EB78E199F09DC
:1005E0000FB6F8949EBF0FBE8DBFADB7BEB71196C4
:1005F0006D01BA8BA98B4D0158011A141B0464F5C7
:10060000E12CF12CE114F104C9F482E00E94A9006C
:10061000019741F482E00E94A9000197D9F3EE24EA
:10062000E394F12C83E00E94A900019759F783E03D
:100630000E94A90022E0E22EF12CF7CF6AEF70E0D1
:1006400080E090E00E946301F401E192F1924F0199
:10065000F1E0AF1AB108D1CF0FB6F8945EBE0FBE6D
:100660004DBEB801C6010E949D01F10180E090E0FD
:1006700021E030E0801791077CF461917191A989A4
:10068000BA894D915D91BA8BA98B6417750711F4E6
:1006900020E030E00196EECF85E0E82EF12C21300D
:1006A0003105C9F461E088E00E94D2006AEF70E091
:1006B00080E090E00E94630160E088E00E94D20048
:1006C0006AEF70E080E090E00E946301B1E0EB1A15
:1006D000F10841F718C061E089E00E94D2006AEF9A
:1006E00070E080E090E00E94630160E089E00E9499
:1006F000D2006AEF70E080E090E00E946301E1E0E8
:10070000EE1AF10841F70F5F1F4F24CF80E090E011
:10071000892B09F408CF0E94000005CFF894FFCF81
:1007200002000100010001000100010001000300BE
:00000001FF
